:100000000C945D000C9485000C9485000C94850084
:100010000C9485000C9485000C9485000C9485004C
:100020000C9485000C9485000C9485000C948A0433
:100030000C9485000C9485000C9485000C9485002C
:100040000C94E8030C9485000C9458040C9432042E
:100050000C9485000C9485000C9485000C9485000C
:100060000C9485000C94850000000008000201003B
:100070000003040700000000000000000000000072
:10008000250028002B0000000000240027002A0083
:10009000040404040404040402020202020203032E
:1000A0000303030301020408102040800102040836
:1000B0001020010204081020460511241FBECFEFB6
:1000C000D8E0DEBFCDBF11E0A0E0B1E0E2EBFDE0A3
:1000D00002C005900D92A236B107D9F722E0A2E640
:1000E000B1E001C01D92AD34B207E1F710E0CDE5FB
:1000F000D0E004C02197FE010E94D106CC35D10783
:10010000C9F70E94CE050C94D7060C94000090E02D
:10011000FC01EC55FF4F249180579F4FFC018491C7
:10012000882399F090E0880F991FFC01EA57FF4F50
:10013000A591B491FC01E458FF4F859194918FB73C
:10014000F894EC91E22BEC938FBF089590E0FC01C2
:10015000E859FF4F2491FC01EC55FF4F3491FC010D
:10016000E057FF4FE491EE23C9F0222339F023300A
:1001700001F1A8F4213019F1223029F1F0E0EE0F5D
:10018000FF1FE458FF4FA591B4918FB7F894EC91FD
:10019000611126C030953E233C938FBF08952730D0
:1001A000A9F02830C9F0243049F7809180008F7D74
:1001B00003C0809180008F7780938000DFCF84B56B
:1001C0008F7784BDDBCF84B58F7DFBCF8091B0006E
:1001D0008F778093B000D2CF8091B0008F7DF9CF20
:1001E0003E2BDACF3FB7F89480916C0190916D016E
:1001F000A0916E01B0916F0126B5A89B05C02F3F5D
:1002000019F00196A11DB11D3FBFBA2FA92F982F3C
:100210008827BC01CD01620F711D811D911D42E037
:10022000660F771F881F991F4A95D1F708958F92FF
:100230009F92AF92BF92CF92DF92EF92FF924B01CB
:100240005C010E94F2006B017C010E94F2006C19BB
:100250007D098E099F09683E734081059105A8F3C9
:1002600021E0821A9108A108B10888EEC80E83E047
:10027000D81EE11CF11C81149104A104B10429F7DA
:10028000FF90EF90DF90CF90BF90AF909F908F90B6
:100290000895AF92BF92CF92DF92EF92FF920F93A9
:1002A0001F93CF93DF936C017B018B01040F151F0C
:1002B000EB015E01AE18BF08C017D10759F0699174
:1002C000D601ED91FC910190F081E02DC6010995D8
:1002D000892B79F7C501DF91CF911F910F91FF9085
:1002E000EF90DF90CF90BF90AF900895FC01538DB9
:1002F000448D252F30E0842F90E0821B930B541700
:1003000010F0CF96089501970895FC01918D828D8C
:10031000981761F0A28DAE0FBF2FB11D5D968C9125
:10032000928D9F5F9F73928F90E008958FEF9FEF64
:100330000895FC01918D828D981731F0828DE80F20
:10034000F11D858D90E008958FEF9FEF0895FC01DA
:10035000918D228D892F90E0805C9F4F821B9109A7
:100360008F739927089580E791E00E94A70121E00B
:10037000892B09F420E0822F089580E090E0892BFA
:1003800029F00E94B30181110C9400000895FC0132
:10039000A48DA80FB92FB11DA35ABF4F2C91848DE6
:1003A00090E001968F739927848FA689B7892C9343
:1003B000A089B1898C91837080648C93938D848D96
:1003C000981306C00288F389E02D80818F7D808399
:1003D0000895EF92FF920F931F93CF93DF93EC0159
:1003E00081E0888F9B8D8C8D98131AC0E889F989DC
:1003F000808185FF15C09FB7F894EE89FF896083DF
:10040000E889F98980818370806480839FBF81E05F
:1004100090E0DF91CF911F910F91FF90EF900895A1
:10042000F62E0B8D10E00F5F1F4F0F731127E02E7C
:100430008C8D8E110CC00FB607FCFACFE889F989B4
:10044000808185FFF5CFCE010E94C701F1CFEB8DF2
:10045000EC0FFD2FF11DE35AFF4FF0829FB7F89488
:100460000B8FEA89FB8980818062CFCFCF93DF93A6
:10047000EC01888D8823B9F0AA89BB89E889F989BC
:100480008C9185FD03C0808186FD0DC00FB607FCF1
:10049000F7CF8C9185FFF2CF808185FFEDCFCE0124
:1004A0000E94C701E9CFDF91CF910895089590E0B0
:1004B00080E00895FB0101900020E9F73197AF013A
:1004C000461B570BDC01ED91FC910280F381E02D7E
:1004D00009940F931F93CF93DF93EC010E945A026C
:1004E0008C016EE171E0CE010E945A02800F911FD3
:1004F000DF91CF911F910F910895CF93DF93EC017E
:1005000060E08E810E94A60061E08E810E94A600BC
:1005100060E08E810E94A6008BE891E00197F1F7E0
:10052000DF91CF910895CF92DF92EF92FF920F93D8
:100530001F93CF93DF936C017C0187E0E80EF11CE1
:10054000D0E0C0E0062F10E0B8010C2E02C0759577
:1005500067950A94E2F76170F70181917F010E942B
:10056000A6002196C430D10579F7C601DF91CF915D
:100570001F910F91FF90EF90DF90CF900C947D0230
:10058000CF92DF92EF92FF920F931F93CF93DF935F
:10059000EC01F62E642F8C810E94A6008D818F3F86
:1005A00019F060E00E94A6000F2D10E08F8584FFF7
:1005B00025C06E0187E0C80ED11CF12CE12CB801DA
:1005C0000E2C02C0759567950A94E2F76170F601EA
:1005D00081916F010E94A600FFEFEF1AFF0A88E0E9
:1005E000E816F10461F7CE01DF91CF911F910F91D1
:1005F000FF90EF90DF90CF900C947D02B80184E0E3
:10060000759567958A95E1F7CE010E9493026F2D4B
:10061000CE01DF91CF911F910F91FF90EF90DF906E
:10062000CF900C94930240E0682F82E392E00C9408
:10063000C002CF93DF93823029F4909141029860F9
:1006400090934102809345021092460280E4809389
:10065000470280E18093480280E5809349028091BF
:1006600036020E948700809137028F3F11F00E946E
:100670008700809138020E948700C2E3D2E09E0189
:10068000225332408091410284FD0AC084E090E010
:100690002196281739073CF48E810E948700EFCFFE
:1006A00088E090E0F5CF8BE39DE00197F1F760E003
:1006B000809136020E94A60060E0809138020E947C
:1006C000A600809137028F3F19F060E00E94A600DB
:1006D0008091410284FD39C063E082E392E00E9490
:1006E0009302CBE4D6E4CE010197F1F763E082E315
:1006F00092E00E9493022197F1F763E082E392E097
:100700000E94930283E592E00197F1F762E082E3B1
:1007100092E00E9493028091410280620E94130342
:1007200084E0809342028CE00E94130381E00E94E7
:1007300013038BE39FE10197F1F782E0809343027B
:1007400086E0DF91CF910C94130380620E94130323
:100750008BE496E40197F1F78091410280620E9458
:10076000130383E592E00197F1F7809141028062E3
:100770000E941303D0CFE1E0809145028111E0E0B7
:10078000E195F0E0EE5CFD4F848980680E941303E0
:1007900061E271E082E392E00E946902E091450229
:1007A000E23070F4E150F0E0EE5CFD4F8489806847
:1007B0000E94130360E371E082E392E00C9469020B
:1007C000E1E0F1CF41E00E94C00281E090E00895B5
:1007D0001F920F920FB60F9211242F933F938F9376
:1007E0009F93AF93BF938091680190916901A0910D
:1007F0006A01B0916B013091670123E0230F2D371F
:1008000058F50196A11DB11D2093670180936801E1
:1008100090936901A0936A01B0936B0180916C0180
:1008200090916D01A0916E01B0916F010196A11D93
:10083000B11D80936C0190936D01A0936E01B093F4
:100840006F01BF91AF919F918F913F912F910F9029
:100850000FBE0F901F90189526E8230F0296A11D3A
:10086000B11DD2CF1F920F920FB60F9211242F936A
:100870003F934F935F936F937F938F939F93AF9328
:10088000BF93EF93FF9380E791E00E94C701FF9130
:10089000EF91BF91AF919F918F917F916F915F91F8
:1008A0004F913F912F910F900FBE0F901F90189571
:1008B0001F920F920FB60F9211242F938F939F9335
:1008C000EF93FF93E0918001F09181018081E091AD
:1008D0008601F091870182FD1BC090818091890182
:1008E0008F5F8F7320918A01821741F0E091890117
:1008F000F0E0E059FE4F958F80938901FF91EF91D1
:100900009F918F912F910F900FBE0F901F90189570
:100910008081F4CF1F920F920FB60F9211242F9364
:100920003F934F935F936F937F938F939F93AF9377
:10093000BF93CF93DF93EF93FF9380916201C091B8
:100940003102D0E087FF24C010928500109284000D
:10095000809162018F5F8093620180916201082E15
:10096000000C990B8C179D0724F4809162018C3048
:10097000C4F18091840090918500049680349C4954
:1009800008F47AC08091840090918500049676C026
:1009900080916201082E000C990B8C179D07C4F6FC
:1009A000E09162018E2FEE0F990BFC01EE0FFF1FFD
:1009B000E80FF91FE35FFD4F808186FFC9CFE0910B
:1009C00062018E2FEE0F990BFC01EE0FFF1FE80F57
:1009D000F91FE35FFD4F808160E08F730E94A600E6
:1009E000B7CF2091840030918500E09162018E2F75
:1009F000EE0F990BFC01EE0FFF1FE80FF91FE35FED
:100A0000FD4F81819281820F931F90938900809383
:100A10008800E09162018E2FEE0F990BFC01EE0F22
:100A2000FF1FE80FF91FE35FFD4F808186FF11C0B4
:100A3000E09162018E2FEE0F990BFC01EE0FFF1F6C
:100A4000E80FF91FE35FFD4F808161E08F730E9423
:100A5000A600FF91EF91DF91CF91BF91AF919F9150
:100A60008F917F916F915F914F913F912F910F9057
:100A70000FBE0F901F90189580E49CE99093890019
:100A8000809388008FEF80936201E3CF109273010F
:100A90001092720188EE93E0A0E0B0E080937401C0
:100AA00090937501A0937601B093770184E091E073
:100AB000909371018093700185EC90E090937D019B
:100AC00080937C0184EC90E090937F0180937E0181
:100AD00080EC90E0909381018093800181EC90E024
:100AE000909383018093820182EC90E09093850142
:100AF0008093840186EC90E0909387018093860137
:100B00001092890110928A0110928B0110928C012F
:100B1000809131028C30F0F591E0980F9093310282
:100B200080934A0290E0FC01EE0FFF1FE80FF91FCF
:100B3000E35FFD4F88EB9BE0928381831092350247
:100B40001092340286E191E0909333028093320256
:100B500082E1809336028FEF8093370283E18093A6
:100B6000380281E18093390280E180933A028FE07C
:100B700080933B028EE080933C0210923D021092E3
:100B80003E0210923F02109240021092410281E018
:100B90000C9419038FEF80934A02D0CF789484B5D8
:100BA000826084BD84B5816084BD85B5826085BD69
:100BB00085B5816085BD80916E00816080936E00F7
:100BC00010928100809181008260809381008091E9
:100BD000810081608093810080918000816080939A
:100BE00080008091B10084608093B1008091B0005A
:100BF00081608093B00080917A00846080937A0055
:100C000080917A00826080937A0080917A0081607E
:100C100080937A0080917A00806880937A001092A5
:100C2000C1008BE00E94870089E00E94870060E09D
:100C30008BE00E94A60060E089E00E94A600E0919F
:100C40008001F091810182E08083E0917C01F0914C
:100C50007D011082E0917E01F0917F018FEC808315
:100C600010928801E0918401F091850186E08083F3
:100C7000E0918201F0918301808180618083E09125
:100C80008201F0918301808188608083E0918201FC
:100C9000F0918301808180688083E0918201F091EE
:100CA000830180818F7D80836AE371E080E791E03A
:100CB0000E9469020E94BB0382E00E9419030BE3B9
:100CC0001FE1C0E0D0E0EE24E394F12C0E94BB03CE
:100CD00080E791E00E94A7011816190644F480E706
:100CE00091E00E9485019093660180936501809157
:100CF0006501909166012091630130916401232B7D
:100D000009F044C08133910509F040C064E873E004
:100D100080E090E00E94170181E00E941303C80167
:100D20000197F1F7E1E0809145028111E0E0E19562
:100D3000F0E0EE5CFD4F848980680E94130362E559
:100D400071E082E392E00E94690261E08BE00E9420
:100D5000A60061E089E00E94A60068EB7BE080E0ED
:100D600090E00E94170160E08BE00E94A600F092E4
:100D70006401E0926301209709F4A8CF0E94B301B7
:100D8000882309F4A3CF0E940000A0CFC09799F751
:100D900060E08BE00E94A600109264011092630153
:100DA000EACFEE0FFF1F0590F491E02D0994F8941F
:020DB000FFCF73
:100DB20000000000E901490176013602A701850120
:100DC200990100000000E2034901570256020D0A90
:100DD2000053484F57204641434520544F2020009E
:100DE20053544152542042555300436F6E6E656313
:100DF20074696F6E2045737461626C6973686564AF
:100E02002100454E47494E452053544152544544D2
:020E12002000BE
:00000001FF
